{
  "_format": "hh-sol-artifact-1",
  "contractName": "SizovToken",
  "sourceName": "contracts/SizovToken.sol",
  "abi": [
    {
      "inputs": [],
      "stateMutability": "nonpayable",
      "type": "constructor"
    },
    {
      "anonymous": false,
      "inputs": [
        {
          "indexed": true,
          "internalType": "address",
          "name": "owner",
          "type": "address"
        },
        {
          "indexed": true,
          "internalType": "address",
          "name": "spender",
          "type": "address"
        },
        {
          "indexed": false,
          "internalType": "uint256",
          "name": "value",
          "type": "uint256"
        }
      ],
      "name": "Approval",
      "type": "event"
    },
    {
      "anonymous": false,
      "inputs": [
        {
          "indexed": true,
          "internalType": "address",
          "name": "previousOwner",
          "type": "address"
        },
        {
          "indexed": true,
          "internalType": "address",
          "name": "newOwner",
          "type": "address"
        }
      ],
      "name": "OwnershipTransferred",
      "type": "event"
    },
    {
      "anonymous": false,
      "inputs": [
        {
          "indexed": true,
          "internalType": "address",
          "name": "from",
          "type": "address"
        },
        {
          "indexed": true,
          "internalType": "address",
          "name": "to",
          "type": "address"
        },
        {
          "indexed": false,
          "internalType": "uint256",
          "name": "value",
          "type": "uint256"
        }
      ],
      "name": "Transfer",
      "type": "event"
    },
    {
      "inputs": [
        {
          "internalType": "address",
          "name": "owner",
          "type": "address"
        },
        {
          "internalType": "address",
          "name": "spender",
          "type": "address"
        }
      ],
      "name": "allowance",
      "outputs": [
        {
          "internalType": "uint256",
          "name": "",
          "type": "uint256"
        }
      ],
      "stateMutability": "view",
      "type": "function"
    },
    {
      "inputs": [
        {
          "internalType": "address",
          "name": "spender",
          "type": "address"
        },
        {
          "internalType": "uint256",
          "name": "amount",
          "type": "uint256"
        }
      ],
      "name": "approve",
      "outputs": [
        {
          "internalType": "bool",
          "name": "",
          "type": "bool"
        }
      ],
      "stateMutability": "nonpayable",
      "type": "function"
    },
    {
      "inputs": [
        {
          "internalType": "address",
          "name": "account",
          "type": "address"
        }
      ],
      "name": "balanceOf",
      "outputs": [
        {
          "internalType": "uint256",
          "name": "",
          "type": "uint256"
        }
      ],
      "stateMutability": "view",
      "type": "function"
    },
    {
      "inputs": [],
      "name": "decimals",
      "outputs": [
        {
          "internalType": "uint8",
          "name": "",
          "type": "uint8"
        }
      ],
      "stateMutability": "view",
      "type": "function"
    },
    {
      "inputs": [
        {
          "internalType": "address",
          "name": "spender",
          "type": "address"
        },
        {
          "internalType": "uint256",
          "name": "subtractedValue",
          "type": "uint256"
        }
      ],
      "name": "decreaseAllowance",
      "outputs": [
        {
          "internalType": "bool",
          "name": "",
          "type": "bool"
        }
      ],
      "stateMutability": "nonpayable",
      "type": "function"
    },
    {
      "inputs": [],
      "name": "getMessage",
      "outputs": [
        {
          "internalType": "string",
          "name": "",
          "type": "string"
        }
      ],
      "stateMutability": "view",
      "type": "function"
    },
    {
      "inputs": [
        {
          "internalType": "address",
          "name": "spender",
          "type": "address"
        },
        {
          "internalType": "uint256",
          "name": "addedValue",
          "type": "uint256"
        }
      ],
      "name": "increaseAllowance",
      "outputs": [
        {
          "internalType": "bool",
          "name": "",
          "type": "bool"
        }
      ],
      "stateMutability": "nonpayable",
      "type": "function"
    },
    {
      "inputs": [
        {
          "internalType": "address",
          "name": "to",
          "type": "address"
        },
        {
          "internalType": "uint256",
          "name": "amount",
          "type": "uint256"
        }
      ],
      "name": "mint",
      "outputs": [],
      "stateMutability": "nonpayable",
      "type": "function"
    },
    {
      "inputs": [],
      "name": "name",
      "outputs": [
        {
          "internalType": "string",
          "name": "",
          "type": "string"
        }
      ],
      "stateMutability": "view",
      "type": "function"
    },
    {
      "inputs": [],
      "name": "owner",
      "outputs": [
        {
          "internalType": "address",
          "name": "",
          "type": "address"
        }
      ],
      "stateMutability": "view",
      "type": "function"
    },
    {
      "inputs": [],
      "name": "renounceOwnership",
      "outputs": [],
      "stateMutability": "nonpayable",
      "type": "function"
    },
    {
      "inputs": [],
      "name": "symbol",
      "outputs": [
        {
          "internalType": "string",
          "name": "",
          "type": "string"
        }
      ],
      "stateMutability": "view",
      "type": "function"
    },
    {
      "inputs": [],
      "name": "totalSupply",
      "outputs": [
        {
          "internalType": "uint256",
          "name": "",
          "type": "uint256"
        }
      ],
      "stateMutability": "view",
      "type": "function"
    },
    {
      "inputs": [
        {
          "internalType": "address",
          "name": "to",
          "type": "address"
        },
        {
          "internalType": "uint256",
          "name": "amount",
          "type": "uint256"
        }
      ],
      "name": "transfer",
      "outputs": [
        {
          "internalType": "bool",
          "name": "",
          "type": "bool"
        }
      ],
      "stateMutability": "nonpayable",
      "type": "function"
    },
    {
      "inputs": [
        {
          "internalType": "address",
          "name": "from",
          "type": "address"
        },
        {
          "internalType": "address",
          "name": "to",
          "type": "address"
        },
        {
          "internalType": "uint256",
          "name": "amount",
          "type": "uint256"
        }
      ],
      "name": "transferFrom",
      "outputs": [
        {
          "internalType": "bool",
          "name": "",
          "type": "bool"
        }
      ],
      "stateMutability": "nonpayable",
      "type": "function"
    },
    {
      "inputs": [
        {
          "internalType": "address",
          "name": "newOwner",
          "type": "address"
        }
      ],
      "name": "transferOwnership",
      "outputs": [],
      "stateMutability": "nonpayable",
      "type": "function"
    }
  ],
  "bytecode": "0x60806040523480156200001157600080fd5b506040518060400160405280600a81526020017f53697a6f76546f6b656e000000000000000000000000000000000000000000008152506040518060400160405280600381526020017f4d544b000000000000000000000000000000000000000000000000000000000081525081600390805190602001906200009692919062000368565b508060049080519060200190620000af92919062000368565b505050620000d2620000c66200011960201b60201c565b6200012160201b60201c565b6200011333620000e7620001e760201b60201c565b600a620000f59190620005b2565b64e8d4a5100062000107919062000603565b620001f060201b60201c565b620007d7565b600033905090565b6000600560009054906101000a900473ffffffffffffffffffffffffffffffffffffffff16905081600560006101000a81548173ffffffffffffffffffffffffffffffffffffffff021916908373ffffffffffffffffffffffffffffffffffffffff1602179055508173ffffffffffffffffffffffffffffffffffffffff168173ffffffffffffffffffffffffffffffffffffffff167f8be0079c531659141344cd1fd0a4f28419497f9722a3daafe3b4186f6b6457e060405160405180910390a35050565b60006012905090565b600073ffffffffffffffffffffffffffffffffffffffff168273ffffffffffffffffffffffffffffffffffffffff16141562000263576040517f08c379a00000000000000000000000000000000000000000000000000000000081526004016200025a90620006c5565b60405180910390fd5b62000277600083836200035e60201b60201c565b80600260008282546200028b9190620006e7565b92505081905550806000808473ffffffffffffffffffffffffffffffffffffffff1673ffffffffffffffffffffffffffffffffffffffff168152602001908152602001600020600082825401925050819055508173ffffffffffffffffffffffffffffffffffffffff16600073ffffffffffffffffffffffffffffffffffffffff167fddf252ad1be2c89b69c2b068fc378daa952ba7f163c4a11628f55a4df523b3ef836040516200033e919062000755565b60405180910390a36200035a600083836200036360201b60201c565b5050565b505050565b505050565b8280546200037690620007a1565b90600052602060002090601f0160209004810192826200039a5760008555620003e6565b82601f10620003b557805160ff1916838001178555620003e6565b82800160010185558215620003e6579182015b82811115620003e5578251825591602001919060010190620003c8565b5b509050620003f59190620003f9565b5090565b5b8082111562000414576000816000905550600101620003fa565b5090565b7f4e487b7100000000000000000000000000000000000000000000000000000000600052601160045260246000fd5b60008160011c9050919050565b6000808291508390505b6001851115620004a6578086048111156200047e576200047d62000418565b5b60018516156200048e5780820291505b80810290506200049e8562000447565b94506200045e565b94509492505050565b600082620004c1576001905062000594565b81620004d1576000905062000594565b8160018114620004ea5760028114620004f5576200052b565b600191505062000594565b60ff8411156200050a576200050962000418565b5b8360020a91508482111562000524576200052362000418565b5b5062000594565b5060208310610133831016604e8410600b8410161715620005655782820a9050838111156200055f576200055e62000418565b5b62000594565b62000574848484600162000454565b925090508184048111156200058e576200058d62000418565b5b81810290505b9392505050565b6000819050919050565b600060ff82169050919050565b6000620005bf826200059b565b9150620005cc83620005a5565b9250620005fb7fffffffffffffffffffffffffffffffffffffffffffffffffffffffffffffffff8484620004af565b905092915050565b600062000610826200059b565b91506200061d836200059b565b9250817fffffffffffffffffffffffffffffffffffffffffffffffffffffffffffffffff048311821515161562000659576200065862000418565b5b828202905092915050565b600082825260208201905092915050565b7f45524332303a206d696e7420746f20746865207a65726f206164647265737300600082015250565b6000620006ad601f8362000664565b9150620006ba8262000675565b602082019050919050565b60006020820190508181036000830152620006e0816200069e565b9050919050565b6000620006f4826200059b565b915062000701836200059b565b9250827fffffffffffffffffffffffffffffffffffffffffffffffffffffffffffffffff0382111562000739576200073862000418565b5b828201905092915050565b6200074f816200059b565b82525050565b60006020820190506200076c600083018462000744565b92915050565b7f4e487b7100000000000000000000000000000000000000000000000000000000600052602260045260246000fd5b60006002820490506001821680620007ba57607f821691505b60208210811415620007d157620007d062000772565b5b50919050565b61187880620007e76000396000f3fe608060405234801561001057600080fd5b50600436106101005760003560e01c8063715018a611610097578063a9059cbb11610066578063a9059cbb146102b1578063ce6d41de146102e1578063dd62ed3e146102ff578063f2fde38b1461032f57610100565b8063715018a61461023b5780638da5cb5b1461024557806395d89b4114610263578063a457c2d71461028157610100565b8063313ce567116100d3578063313ce567146101a157806339509351146101bf57806340c10f19146101ef57806370a082311461020b57610100565b806306fdde0314610105578063095ea7b31461012357806318160ddd1461015357806323b872dd14610171575b600080fd5b61010d61034b565b60405161011a9190610f9e565b60405180910390f35b61013d60048036038101906101389190611059565b6103dd565b60405161014a91906110b4565b60405180910390f35b61015b610400565b60405161016891906110de565b60405180910390f35b61018b600480360381019061018691906110f9565b61040a565b60405161019891906110b4565b60405180910390f35b6101a9610439565b6040516101b69190611168565b60405180910390f35b6101d960048036038101906101d49190611059565b610442565b6040516101e691906110b4565b60405180910390f35b61020960048036038101906102049190611059565b610479565b005b61022560048036038101906102209190611183565b61048f565b60405161023291906110de565b60405180910390f35b6102436104d7565b005b61024d6104eb565b60405161025a91906111bf565b60405180910390f35b61026b610515565b6040516102789190610f9e565b60405180910390f35b61029b60048036038101906102969190611059565b6105a7565b6040516102a891906110b4565b60405180910390f35b6102cb60048036038101906102c69190611059565b61061e565b6040516102d891906110b4565b60405180910390f35b6102e9610641565b6040516102f69190610f9e565b60405180910390f35b610319600480360381019061031491906111da565b61067e565b60405161032691906110de565b60405180910390f35b61034960048036038101906103449190611183565b610705565b005b60606003805461035a90611249565b80601f016020809104026020016040519081016040528092919081815260200182805461038690611249565b80156103d35780601f106103a8576101008083540402835291602001916103d3565b820191906000526020600020905b8154815290600101906020018083116103b657829003601f168201915b5050505050905090565b6000806103e8610789565b90506103f5818585610791565b600191505092915050565b6000600254905090565b600080610415610789565b905061042285828561095c565b61042d8585856109e8565b60019150509392505050565b60006012905090565b60008061044d610789565b905061046e81858561045f858961067e565b61046991906112aa565b610791565b600191505092915050565b610481610c60565b61048b8282610cde565b5050565b60008060008373ffffffffffffffffffffffffffffffffffffffff1673ffffffffffffffffffffffffffffffffffffffff168152602001908152602001600020549050919050565b6104df610c60565b6104e96000610e35565b565b6000600560009054906101000a900473ffffffffffffffffffffffffffffffffffffffff16905090565b60606004805461052490611249565b80601f016020809104026020016040519081016040528092919081815260200182805461055090611249565b801561059d5780601f106105725761010080835404028352916020019161059d565b820191906000526020600020905b81548152906001019060200180831161058057829003601f168201915b5050505050905090565b6000806105b2610789565b905060006105c0828661067e565b905083811015610605576040517f08c379a00000000000000000000000000000000000000000000000000000000081526004016105fc90611372565b60405180910390fd5b6106128286868403610791565b60019250505092915050565b600080610629610789565b90506106368185856109e8565b600191505092915050565b60606040518060400160405280600a81526020017f4d79206d65737361676500000000000000000000000000000000000000000000815250905090565b6000600160008473ffffffffffffffffffffffffffffffffffffffff1673ffffffffffffffffffffffffffffffffffffffff16815260200190815260200160002060008373ffffffffffffffffffffffffffffffffffffffff1673ffffffffffffffffffffffffffffffffffffffff16815260200190815260200160002054905092915050565b61070d610c60565b600073ffffffffffffffffffffffffffffffffffffffff168173ffffffffffffffffffffffffffffffffffffffff16141561077d576040517f08c379a000000000000000000000000000000000000000000000000000000000815260040161077490611404565b60405180910390fd5b61078681610e35565b50565b600033905090565b600073ffffffffffffffffffffffffffffffffffffffff168373ffffffffffffffffffffffffffffffffffffffff161415610801576040517f08c379a00000000000000000000000000000000000000000000000000000000081526004016107f890611496565b60405180910390fd5b600073ffffffffffffffffffffffffffffffffffffffff168273ffffffffffffffffffffffffffffffffffffffff161415610871576040517f08c379a000000000000000000000000000000000000000000000000000000000815260040161086890611528565b60405180910390fd5b80600160008573ffffffffffffffffffffffffffffffffffffffff1673ffffffffffffffffffffffffffffffffffffffff16815260200190815260200160002060008473ffffffffffffffffffffffffffffffffffffffff1673ffffffffffffffffffffffffffffffffffffffff168152602001908152602001600020819055508173ffffffffffffffffffffffffffffffffffffffff168373ffffffffffffffffffffffffffffffffffffffff167f8c5be1e5ebec7d5bd14f71427d1e84f3dd0314c0f7b2291e5b200ac8c7c3b9258360405161094f91906110de565b60405180910390a3505050565b6000610968848461067e565b90507fffffffffffffffffffffffffffffffffffffffffffffffffffffffffffffffff81146109e257818110156109d4576040517f08c379a00000000000000000000000000000000000000000000000000000000081526004016109cb90611594565b60405180910390fd5b6109e18484848403610791565b5b50505050565b600073ffffffffffffffffffffffffffffffffffffffff168373ffffffffffffffffffffffffffffffffffffffff161415610a58576040517f08c379a0000000000000000000000000000000000000000000000000000000008152600401610a4f90611626565b60405180910390fd5b600073ffffffffffffffffffffffffffffffffffffffff168273ffffffffffffffffffffffffffffffffffffffff161415610ac8576040517f08c379a0000000000000000000000000000000000000000000000000000000008152600401610abf906116b8565b60405180910390fd5b610ad3838383610efb565b60008060008573ffffffffffffffffffffffffffffffffffffffff1673ffffffffffffffffffffffffffffffffffffffff16815260200190815260200160002054905081811015610b59576040517f08c379a0000000000000000000000000000000000000000000000000000000008152600401610b509061174a565b60405180910390fd5b8181036000808673ffffffffffffffffffffffffffffffffffffffff1673ffffffffffffffffffffffffffffffffffffffff16815260200190815260200160002081905550816000808573ffffffffffffffffffffffffffffffffffffffff1673ffffffffffffffffffffffffffffffffffffffff168152602001908152602001600020600082825401925050819055508273ffffffffffffffffffffffffffffffffffffffff168473ffffffffffffffffffffffffffffffffffffffff167fddf252ad1be2c89b69c2b068fc378daa952ba7f163c4a11628f55a4df523b3ef84604051610c4791906110de565b60405180910390a3610c5a848484610f00565b50505050565b610c68610789565b73ffffffffffffffffffffffffffffffffffffffff16610c866104eb565b73ffffffffffffffffffffffffffffffffffffffff1614610cdc576040517f08c379a0000000000000000000000000000000000000000000000000000000008152600401610cd3906117b6565b60405180910390fd5b565b600073ffffffffffffffffffffffffffffffffffffffff168273ffffffffffffffffffffffffffffffffffffffff161415610d4e576040517f08c379a0000000000000000000000000000000000000000000000000000000008152600401610d4590611822565b60405180910390fd5b610d5a60008383610efb565b8060026000828254610d6c91906112aa565b92505081905550806000808473ffffffffffffffffffffffffffffffffffffffff1673ffffffffffffffffffffffffffffffffffffffff168152602001908152602001600020600082825401925050819055508173ffffffffffffffffffffffffffffffffffffffff16600073ffffffffffffffffffffffffffffffffffffffff167fddf252ad1be2c89b69c2b068fc378daa952ba7f163c4a11628f55a4df523b3ef83604051610e1d91906110de565b60405180910390a3610e3160008383610f00565b5050565b6000600560009054906101000a900473ffffffffffffffffffffffffffffffffffffffff16905081600560006101000a81548173ffffffffffffffffffffffffffffffffffffffff021916908373ffffffffffffffffffffffffffffffffffffffff1602179055508173ffffffffffffffffffffffffffffffffffffffff168173ffffffffffffffffffffffffffffffffffffffff167f8be0079c531659141344cd1fd0a4f28419497f9722a3daafe3b4186f6b6457e060405160405180910390a35050565b505050565b505050565b600081519050919050565b600082825260208201905092915050565b60005b83811015610f3f578082015181840152602081019050610f24565b83811115610f4e576000848401525b50505050565b6000601f19601f8301169050919050565b6000610f7082610f05565b610f7a8185610f10565b9350610f8a818560208601610f21565b610f9381610f54565b840191505092915050565b60006020820190508181036000830152610fb88184610f65565b905092915050565b600080fd5b600073ffffffffffffffffffffffffffffffffffffffff82169050919050565b6000610ff082610fc5565b9050919050565b61100081610fe5565b811461100b57600080fd5b50565b60008135905061101d81610ff7565b92915050565b6000819050919050565b61103681611023565b811461104157600080fd5b50565b6000813590506110538161102d565b92915050565b600080604083850312156110705761106f610fc0565b5b600061107e8582860161100e565b925050602061108f85828601611044565b9150509250929050565b60008115159050919050565b6110ae81611099565b82525050565b60006020820190506110c960008301846110a5565b92915050565b6110d881611023565b82525050565b60006020820190506110f360008301846110cf565b92915050565b60008060006060848603121561111257611111610fc0565b5b60006111208682870161100e565b93505060206111318682870161100e565b925050604061114286828701611044565b9150509250925092565b600060ff82169050919050565b6111628161114c565b82525050565b600060208201905061117d6000830184611159565b92915050565b60006020828403121561119957611198610fc0565b5b60006111a78482850161100e565b91505092915050565b6111b981610fe5565b82525050565b60006020820190506111d460008301846111b0565b92915050565b600080604083850312156111f1576111f0610fc0565b5b60006111ff8582860161100e565b92505060206112108582860161100e565b9150509250929050565b7f4e487b7100000000000000000000000000000000000000000000000000000000600052602260045260246000fd5b6000600282049050600182168061126157607f821691505b602082108114156112755761127461121a565b5b50919050565b7f4e487b7100000000000000000000000000000000000000000000000000000000600052601160045260246000fd5b60006112b582611023565b91506112c083611023565b9250827fffffffffffffffffffffffffffffffffffffffffffffffffffffffffffffffff038211156112f5576112f461127b565b5b828201905092915050565b7f45524332303a2064656372656173656420616c6c6f77616e63652062656c6f7760008201527f207a65726f000000000000000000000000000000000000000000000000000000602082015250565b600061135c602583610f10565b915061136782611300565b604082019050919050565b6000602082019050818103600083015261138b8161134f565b9050919050565b7f4f776e61626c653a206e6577206f776e657220697320746865207a65726f206160008201527f6464726573730000000000000000000000000000000000000000000000000000602082015250565b60006113ee602683610f10565b91506113f982611392565b604082019050919050565b6000602082019050818103600083015261141d816113e1565b9050919050565b7f45524332303a20617070726f76652066726f6d20746865207a65726f2061646460008201527f7265737300000000000000000000000000000000000000000000000000000000602082015250565b6000611480602483610f10565b915061148b82611424565b604082019050919050565b600060208201905081810360008301526114af81611473565b9050919050565b7f45524332303a20617070726f766520746f20746865207a65726f20616464726560008201527f7373000000000000000000000000000000000000000000000000000000000000602082015250565b6000611512602283610f10565b915061151d826114b6565b604082019050919050565b6000602082019050818103600083015261154181611505565b9050919050565b7f45524332303a20696e73756666696369656e7420616c6c6f77616e6365000000600082015250565b600061157e601d83610f10565b915061158982611548565b602082019050919050565b600060208201905081810360008301526115ad81611571565b9050919050565b7f45524332303a207472616e736665722066726f6d20746865207a65726f20616460008201527f6472657373000000000000000000000000000000000000000000000000000000602082015250565b6000611610602583610f10565b915061161b826115b4565b604082019050919050565b6000602082019050818103600083015261163f81611603565b9050919050565b7f45524332303a207472616e7366657220746f20746865207a65726f206164647260008201527f6573730000000000000000000000000000000000000000000000000000000000602082015250565b60006116a2602383610f10565b91506116ad82611646565b604082019050919050565b600060208201905081810360008301526116d181611695565b9050919050565b7f45524332303a207472616e7366657220616d6f756e742065786365656473206260008201527f616c616e63650000000000000000000000000000000000000000000000000000602082015250565b6000611734602683610f10565b915061173f826116d8565b604082019050919050565b6000602082019050818103600083015261176381611727565b9050919050565b7f4f776e61626c653a2063616c6c6572206973206e6f7420746865206f776e6572600082015250565b60006117a0602083610f10565b91506117ab8261176a565b602082019050919050565b600060208201905081810360008301526117cf81611793565b9050919050565b7f45524332303a206d696e7420746f20746865207a65726f206164647265737300600082015250565b600061180c601f83610f10565b9150611817826117d6565b602082019050919050565b6000602082019050818103600083015261183b816117ff565b905091905056fea264697066735822122060ba626b135cf49955571ef11b5020792174031a71a142df5619a3ae80c794f164736f6c63430008090033",
  "linkReferences": {},
  "deployedLinkReferences": {}
}